{
  "_format": "hh-sol-artifact-1",
  "contractName": "ID",
  "sourceName": "contracts/ID.sol",
  "abi": [
    {
      "inputs": [
        {
          "internalType": "string",
          "name": "_appId",
          "type": "string"
        },
        {
          "internalType": "string",
          "name": "_actionId",
          "type": "string"
        }
      ],
      "stateMutability": "nonpayable",
      "type": "constructor"
    },
    {
      "inputs": [
        {
          "internalType": "uint256",
          "name": "nullifierHash",
          "type": "uint256"
        }
      ],
      "name": "DuplicateNullifier",
      "type": "error"
    },
    {
      "anonymous": false,
      "inputs": [
        {
          "indexed": false,
          "internalType": "uint256",
          "name": "nullifierHash",
          "type": "uint256"
        }
      ],
      "name": "Verified",
      "type": "event"
    },
    {
      "inputs": [
        {
          "internalType": "address",
          "name": "_currentUser",
          "type": "address"
        }
      ],
      "name": "manualVerify",
      "outputs": [],
      "stateMutability": "nonpayable",
      "type": "function"
    },
    {
      "inputs": [],
      "name": "owner",
      "outputs": [
        {
          "internalType": "address",
          "name": "",
          "type": "address"
        }
      ],
      "stateMutability": "view",
      "type": "function"
    },
    {
      "inputs": [
        {
          "internalType": "address",
          "name": "signal",
          "type": "address"
        },
        {
          "internalType": "uint256",
          "name": "root",
          "type": "uint256"
        },
        {
          "internalType": "uint256",
          "name": "nullifierHash",
          "type": "uint256"
        },
        {
          "internalType": "uint256[8]",
          "name": "proof",
          "type": "uint256[8]"
        }
      ],
      "name": "verifyAndExecute",
      "outputs": [],
      "stateMutability": "nonpayable",
      "type": "function"
    }
  ],
  "bytecode": "0x60e06040527311ca3127182f7583efc416a8771bd4d11fae4334608052600160c05234801561002d57600080fd5b506040516106a03803806106a083398101604081905261004c9161019c565b61008a6100788360405160200161006391906101ff565b60408051601f198184030181529190526100a6565b8260405160200161006392919061021b565b60a0525050600080546001600160a01b03191633179055610241565b60006008826040516020016100bb91906101ff565b60408051601f198184030181529190528051602090910120901c92915050565b634e487b7160e01b600052604160045260246000fd5b60005b8381101561010c5781810151838201526020016100f4565b50506000910152565b600082601f83011261012657600080fd5b81516001600160401b0380821115610140576101406100db565b604051601f8301601f19908116603f01168101908282118183101715610168576101686100db565b8160405283815286602085880101111561018157600080fd5b6101928460208301602089016100f1565b9695505050505050565b600080604083850312156101af57600080fd5b82516001600160401b03808211156101c657600080fd5b6101d286838701610115565b935060208501519150808211156101e857600080fd5b506101f585828601610115565b9150509250929050565b600082516102118184602087016100f1565b9190910192915050565b828152600082516102338160208501602087016100f1565b919091016020019392505050565b60805160a05160c0516104306102706000396000610196015260006101f80152600061016601526104306000f3fe608060405234801561001057600080fd5b50600436106100415760003560e01c80637c98ce86146100465780638da5cb5b1461005b578063e9b705531461008a575b600080fd5b610059610054366004610323565b61009d565b005b60005461006e906001600160a01b031681565b6040516001600160a01b03909116815260200160405180910390f35b610059610098366004610345565b610131565b6000546001600160a01b0316331461010d5760405162461bcd60e51b815260206004820152602860248201527f4f6e6c7920746865206f776e65722063616e206d616e75616c6c792076657269604482015267667920757365727360c01b60648201526084015b60405180910390fd5b6001600160a01b03166000908152600260205260409020805460ff19166001179055565b60008281526001602052604090205460ff161561016457604051633c7fd51360e11b815260048101839052602401610104565b7f00000000000000000000000000000000000000000000000000000000000000006001600160a01b0316633bc778e3847f00000000000000000000000000000000000000000000000000000000000000006101f5886040516020016101e1919060609190911b6bffffffffffffffffffffffff1916815260140190565b6040516020818303038152906040526102d2565b867f0000000000000000000000000000000000000000000000000000000000000000876040518763ffffffff1660e01b815260040161023996959493929190610393565b60006040518083038186803b15801561025157600080fd5b505afa158015610265573d6000803e3d6000fd5b5050506000838152600160208181526040808420805460ff19908116851790915533855260028352938190208054909416909217909255518481527ff786e7f77ede00a02a5464f8f0555798f42ba99a4a920ef2778db8d75e4656f792500160405180910390a150505050565b60006008826040516020016102e791906103cb565b60408051601f198184030181529190528051602090910120901c92915050565b80356001600160a01b038116811461031e57600080fd5b919050565b60006020828403121561033557600080fd5b61033e82610307565b9392505050565b60008060008061016080868803121561035d57600080fd5b61036686610307565b9450602086013593506040860135925086818701111561038557600080fd5b509295919450926060019150565b60006101a0820190508782528660208301528560408301528460608301528360808301526101008360a0840137979650505050505050565b6000825160005b818110156103ec57602081860181015185830152016103d2565b50600092019182525091905056fea26469706673582212205947d5a2bd73d651664559d414d1e68a799643a8e7dda669bda22b07b671ff2f64736f6c63430008180033",
  "linkReferences": {},
  "deployedLinkReferences": {}
}