{
  "_format": "hh-sol-artifact-1",
  "contractName": "Attestation",
  "sourceName": "contracts/Attestation.sol",
  "abi": [
    {
      "inputs": [
        {
          "internalType": "contract IEAS",
          "name": "eas",
          "type": "address"
        }
      ],
      "stateMutability": "nonpayable",
      "type": "constructor"
    },
    {
      "inputs": [],
      "name": "InvalidEAS",
      "type": "error"
    },
    {
      "inputs": [],
      "name": "Schema",
      "outputs": [
        {
          "internalType": "bytes32",
          "name": "",
          "type": "bytes32"
        }
      ],
      "stateMutability": "view",
      "type": "function"
    },
    {
      "inputs": [
        {
          "internalType": "string",
          "name": "Encrypted_GitHub_Repo",
          "type": "string"
        },
        {
          "internalType": "string",
          "name": "Latest_Commit_Hash",
          "type": "string"
        },
        {
          "internalType": "string",
          "name": "Demo_URL",
          "type": "string"
        },
        {
          "internalType": "string",
          "name": "Real_App_URL",
          "type": "string"
        },
        {
          "internalType": "uint16",
          "name": "Total_Commits",
          "type": "uint16"
        },
        {
          "internalType": "string",
          "name": "Authenticated_URL",
          "type": "string"
        }
      ],
      "name": "attestRepo",
      "outputs": [
        {
          "internalType": "bytes32",
          "name": "",
          "type": "bytes32"
        }
      ],
      "stateMutability": "nonpayable",
      "type": "function"
    }
  ],
  "bytecode": "0x60a060405234801561001057600080fd5b506040516105a43803806105a483398101604081905261002f91610067565b6001600160a01b038116610056576040516341bc07ff60e11b815260040160405180910390fd5b6001600160a01b0316608052610097565b60006020828403121561007957600080fd5b81516001600160a01b038116811461009057600080fd5b9392505050565b6080516104f36100b16000396000608701526104f36000f3fe608060405234801561001057600080fd5b50600436106100365760003560e01c80635326ec3e1461003b578063d9f9185f14610074575b600080fd5b6100627f33ef07c7720ee7a7fea6e650b6cfd568ca6ad29ccc834a73c9581f076c7abe7c81565b60405190815260200160405180910390f35b610062610082366004610282565b6000807f00000000000000000000000000000000000000000000000000000000000000006001600160a01b031663f17325e760405180604001604052807f33ef07c7720ee7a7fea6e650b6cfd568ca6ad29ccc834a73c9581f076c7abe7c60001b81526020016040518060c0016040528060006001600160a01b03168152602001600067ffffffffffffffff1681526020016001151581526020016000801b81526020018d8d8d8d8d8d604051602001610141969594939291906103a9565b604051602081830303815290604052815260200160008152508152506040518263ffffffff1660e01b81526004016101799190610421565b6020604051808303816000875af1158015610198573d6000803e3d6000fd5b505050506040513d601f19601f820116820180604052508101906101bc91906104a4565b98975050505050505050565b634e487b7160e01b600052604160045260246000fd5b600082601f8301126101ef57600080fd5b813567ffffffffffffffff8082111561020a5761020a6101c8565b604051601f8301601f19908116603f01168101908282118183101715610232576102326101c8565b8160405283815286602085880101111561024b57600080fd5b836020870160208301376000602085830101528094505050505092915050565b803561ffff8116811461027d57600080fd5b919050565b60008060008060008060c0878903121561029b57600080fd5b863567ffffffffffffffff808211156102b357600080fd5b6102bf8a838b016101de565b975060208901359150808211156102d557600080fd5b6102e18a838b016101de565b965060408901359150808211156102f757600080fd5b6103038a838b016101de565b9550606089013591508082111561031957600080fd5b6103258a838b016101de565b945061033360808a0161026b565b935060a089013591508082111561034957600080fd5b5061035689828a016101de565b9150509295509295509295565b6000815180845260005b818110156103895760208185018101518683018201520161036d565b506000602082860101526020601f19601f83011685010191505092915050565b60c0815260006103bc60c0830189610363565b82810360208401526103ce8189610363565b905082810360408401526103e28188610363565b905082810360608401526103f68187610363565b905061ffff8516608084015282810360a08401526104148185610363565b9998505050505050505050565b60208152815160208201526000602083015160408084015260018060a01b03815116606084015267ffffffffffffffff60208201511660808401526040810151151560a0840152606081015160c0840152608081015160c060e085015261048c610120850182610363565b905060a0820151610100850152809250505092915050565b6000602082840312156104b657600080fd5b505191905056fea26469706673582212200d47000456319b537c2ae5d51ec8d468ac569fbadd73b3bf0f1307cf930c81ae64736f6c63430008180033",
  "linkReferences": {},
  "deployedLinkReferences": {}
}