{
  "_format": "hh-sol-artifact-1",
  "contractName": "SuperHuntOP",
  "sourceName": "contracts/SuperHuntOP.sol",
  "abi": [
    {
      "inputs": [
        {
          "internalType": "address",
          "name": "_pyth",
          "type": "address"
        },
        {
          "internalType": "bytes32",
          "name": "_ethUsdPriceId",
          "type": "bytes32"
        }
      ],
      "stateMutability": "nonpayable",
      "type": "constructor"
    },
    {
      "anonymous": false,
      "inputs": [
        {
          "indexed": true,
          "internalType": "uint256",
          "name": "bountyId",
          "type": "uint256"
        },
        {
          "indexed": true,
          "internalType": "address",
          "name": "submitter",
          "type": "address"
        },
        {
          "indexed": false,
          "internalType": "string",
          "name": "proof",
          "type": "string"
        },
        {
          "indexed": false,
          "internalType": "bool",
          "name": "isRepoPublic",
          "type": "bool"
        }
      ],
      "name": "BountyApproved",
      "type": "event"
    },
    {
      "anonymous": false,
      "inputs": [
        {
          "indexed": true,
          "internalType": "uint256",
          "name": "bountyId",
          "type": "uint256"
        },
        {
          "indexed": true,
          "internalType": "address",
          "name": "creator",
          "type": "address"
        }
      ],
      "name": "BountyCancelled",
      "type": "event"
    },
    {
      "anonymous": false,
      "inputs": [
        {
          "indexed": true,
          "internalType": "uint256",
          "name": "bountyId",
          "type": "uint256"
        },
        {
          "indexed": true,
          "internalType": "address",
          "name": "creator",
          "type": "address"
        },
        {
          "indexed": false,
          "internalType": "string",
          "name": "title",
          "type": "string"
        }
      ],
      "name": "BountyCreated",
      "type": "event"
    },
    {
      "anonymous": false,
      "inputs": [
        {
          "indexed": true,
          "internalType": "uint256",
          "name": "bountyId",
          "type": "uint256"
        },
        {
          "indexed": true,
          "internalType": "address",
          "name": "payee",
          "type": "address"
        }
      ],
      "name": "BountyPaid",
      "type": "event"
    },
    {
      "anonymous": false,
      "inputs": [
        {
          "indexed": true,
          "internalType": "uint256",
          "name": "bountyId",
          "type": "uint256"
        },
        {
          "indexed": false,
          "internalType": "string",
          "name": "solution",
          "type": "string"
        }
      ],
      "name": "SolutionStored",
      "type": "event"
    },
    {
      "anonymous": false,
      "inputs": [
        {
          "indexed": true,
          "internalType": "uint256",
          "name": "bountyId",
          "type": "uint256"
        },
        {
          "indexed": true,
          "internalType": "address",
          "name": "submitter",
          "type": "address"
        },
        {
          "indexed": false,
          "internalType": "string",
          "name": "proof",
          "type": "string"
        }
      ],
      "name": "SubmissionCreated",
      "type": "event"
    },
    {
      "inputs": [
        {
          "internalType": "uint256",
          "name": "bountyId",
          "type": "uint256"
        },
        {
          "internalType": "uint256",
          "name": "submissionIndex",
          "type": "uint256"
        },
        {
          "internalType": "bool",
          "name": "isRepoPublic",
          "type": "bool"
        }
      ],
      "name": "approveSubmission",
      "outputs": [],
      "stateMutability": "nonpayable",
      "type": "function"
    },
    {
      "inputs": [
        {
          "internalType": "uint256",
          "name": "",
          "type": "uint256"
        }
      ],
      "name": "bounties",
      "outputs": [
        {
          "internalType": "uint256",
          "name": "id",
          "type": "uint256"
        },
        {
          "internalType": "uint256",
          "name": "amountInDollars",
          "type": "uint256"
        },
        {
          "internalType": "uint256",
          "name": "balance",
          "type": "uint256"
        },
        {
          "internalType": "string",
          "name": "title",
          "type": "string"
        },
        {
          "internalType": "string",
          "name": "description",
          "type": "string"
        },
        {
          "internalType": "string",
          "name": "instructions",
          "type": "string"
        },
        {
          "internalType": "address",
          "name": "creator",
          "type": "address"
        },
        {
          "internalType": "bool",
          "name": "isActive",
          "type": "bool"
        },
        {
          "internalType": "bool",
          "name": "isWorldIDVerified",
          "type": "bool"
        },
        {
          "internalType": "bool",
          "name": "isBountyPaid",
          "type": "bool"
        },
        {
          "internalType": "string",
          "name": "solution",
          "type": "string"
        },
        {
          "internalType": "uint256",
          "name": "approvedSubmissions",
          "type": "uint256"
        }
      ],
      "stateMutability": "view",
      "type": "function"
    },
    {
      "inputs": [],
      "name": "bountyCounter",
      "outputs": [
        {
          "internalType": "uint256",
          "name": "",
          "type": "uint256"
        }
      ],
      "stateMutability": "view",
      "type": "function"
    },
    {
      "inputs": [
        {
          "internalType": "uint256",
          "name": "bountyId",
          "type": "uint256"
        }
      ],
      "name": "cancelBounty",
      "outputs": [],
      "stateMutability": "nonpayable",
      "type": "function"
    },
    {
      "inputs": [
        {
          "internalType": "string",
          "name": "_title",
          "type": "string"
        },
        {
          "internalType": "string",
          "name": "_description",
          "type": "string"
        },
        {
          "internalType": "string",
          "name": "_instructions",
          "type": "string"
        },
        {
          "internalType": "uint256",
          "name": "_amountInDollars",
          "type": "uint256"
        },
        {
          "internalType": "bool",
          "name": "_isWorldIDVerified",
          "type": "bool"
        },
        {
          "internalType": "bytes[]",
          "name": "updateData",
          "type": "bytes[]"
        }
      ],
      "name": "createBounty",
      "outputs": [],
      "stateMutability": "payable",
      "type": "function"
    },
    {
      "inputs": [
        {
          "internalType": "uint256",
          "name": "bountyId",
          "type": "uint256"
        }
      ],
      "name": "getBounty",
      "outputs": [
        {
          "components": [
            {
              "internalType": "uint256",
              "name": "id",
              "type": "uint256"
            },
            {
              "internalType": "uint256",
              "name": "amountInDollars",
              "type": "uint256"
            },
            {
              "internalType": "uint256",
              "name": "balance",
              "type": "uint256"
            },
            {
              "internalType": "string",
              "name": "title",
              "type": "string"
            },
            {
              "internalType": "string",
              "name": "description",
              "type": "string"
            },
            {
              "internalType": "string",
              "name": "instructions",
              "type": "string"
            },
            {
              "internalType": "address",
              "name": "creator",
              "type": "address"
            },
            {
              "internalType": "bool",
              "name": "isActive",
              "type": "bool"
            },
            {
              "internalType": "bool",
              "name": "isWorldIDVerified",
              "type": "bool"
            },
            {
              "internalType": "bool",
              "name": "isBountyPaid",
              "type": "bool"
            },
            {
              "internalType": "string",
              "name": "solution",
              "type": "string"
            },
            {
              "internalType": "uint256",
              "name": "approvedSubmissions",
              "type": "uint256"
            }
          ],
          "internalType": "struct SuperHuntOP.Bounty",
          "name": "",
          "type": "tuple"
        }
      ],
      "stateMutability": "view",
      "type": "function"
    },
    {
      "inputs": [
        {
          "internalType": "uint256",
          "name": "bountyId",
          "type": "uint256"
        }
      ],
      "name": "getSubmissions",
      "outputs": [
        {
          "components": [
            {
              "internalType": "uint256",
              "name": "bountyId",
              "type": "uint256"
            },
            {
              "internalType": "address",
              "name": "submitter",
              "type": "address"
            },
            {
              "internalType": "bool",
              "name": "isApproved",
              "type": "bool"
            },
            {
              "internalType": "bool",
              "name": "isRepoPrivate",
              "type": "bool"
            },
            {
              "internalType": "string",
              "name": "proof",
              "type": "string"
            }
          ],
          "internalType": "struct SuperHuntOP.Submission[]",
          "name": "",
          "type": "tuple[]"
        }
      ],
      "stateMutability": "view",
      "type": "function"
    },
    {
      "inputs": [],
      "name": "owner",
      "outputs": [
        {
          "internalType": "address",
          "name": "",
          "type": "address"
        }
      ],
      "stateMutability": "view",
      "type": "function"
    },
    {
      "inputs": [
        {
          "internalType": "uint256",
          "name": "bountyId",
          "type": "uint256"
        },
        {
          "internalType": "address payable",
          "name": "hunter",
          "type": "address"
        }
      ],
      "name": "payHunter",
      "outputs": [],
      "stateMutability": "nonpayable",
      "type": "function"
    },
    {
      "inputs": [
        {
          "internalType": "uint256",
          "name": "bountyId",
          "type": "uint256"
        },
        {
          "internalType": "string",
          "name": "solution",
          "type": "string"
        }
      ],
      "name": "storeSolution",
      "outputs": [],
      "stateMutability": "nonpayable",
      "type": "function"
    },
    {
      "inputs": [
        {
          "internalType": "uint256",
          "name": "",
          "type": "uint256"
        },
        {
          "internalType": "uint256",
          "name": "",
          "type": "uint256"
        }
      ],
      "name": "submissions",
      "outputs": [
        {
          "internalType": "uint256",
          "name": "bountyId",
          "type": "uint256"
        },
        {
          "internalType": "address",
          "name": "submitter",
          "type": "address"
        },
        {
          "internalType": "bool",
          "name": "isApproved",
          "type": "bool"
        },
        {
          "internalType": "bool",
          "name": "isRepoPrivate",
          "type": "bool"
        },
        {
          "internalType": "string",
          "name": "proof",
          "type": "string"
        }
      ],
      "stateMutability": "view",
      "type": "function"
    },
    {
      "inputs": [
        {
          "internalType": "uint256",
          "name": "bountyId",
          "type": "uint256"
        },
        {
          "internalType": "string",
          "name": "proof",
          "type": "string"
        }
      ],
      "name": "submitSolution",
      "outputs": [],
      "stateMutability": "nonpayable",
      "type": "function"
    }
  ],
  "bytecode": "0x608060405234801561001057600080fd5b50604051620024e7380380620024e783398101604081905261003191610062565b600080546001600160a01b039093166001600160a01b0319938416179055600155600580549091163317905561009c565b6000806040838503121561007557600080fd5b82516001600160a01b038116811461008c57600080fd5b6020939093015192949293505050565b61243b80620000ac6000396000f3fe6080604052600436106100a75760003560e01c8063a0d5978711610064578063a0d59787146101ad578063b1bb6679146101d1578063d3b5c016146101e4578063dc2f874414610204578063e5e5dff11461023c578063ee8c4bbf1461025c57600080fd5b806316c53ced146100ac5780633a76cf3d146100e257806369c1fc25146101045780636e9f1c43146101355780638564e659146101555780638da5cb5b14610175575b600080fd5b3480156100b857600080fd5b506100cc6100c73660046118de565b610289565b6040516100d9919061193d565b60405180910390f35b3480156100ee57600080fd5b506101026100fd3660046119f6565b6103d4565b005b34801561011057600080fd5b5061012461011f366004611a2b565b61063e565b6040516100d9959493929190611a4d565b34801561014157600080fd5b50610102610150366004611a92565b610728565b34801561016157600080fd5b50610102610170366004611b71565b6108b9565b34801561018157600080fd5b50600554610195906001600160a01b031681565b6040516001600160a01b0390911681526020016100d9565b3480156101b957600080fd5b506101c360045481565b6040519081526020016100d9565b6101026101df366004611c04565b610a46565b3480156101f057600080fd5b506101026101ff366004611b71565b610fb1565b34801561021057600080fd5b5061022461021f3660046118de565b6110e2565b6040516100d99c9b9a99989796959493929190611cd2565b34801561024857600080fd5b506101026102573660046118de565b611376565b34801561026857600080fd5b5061027c6102773660046118de565b61158b565b6040516100d99190611d79565b606060036000838152602001908152602001600020805480602002602001604051908101604052809291908181526020016000905b828210156103c95760008481526020908190206040805160a081018252600386029092018054835260018101546001600160a01b0381169484019490945260ff600160a01b85048116151592840192909252600160a81b909304161515606082015260028201805491929160808401919061033890611e81565b80601f016020809104026020016040519081016040528092919081815260200182805461036490611e81565b80156103b15780601f10610386576101008083540402835291602001916103b1565b820191906000526020600020905b81548152906001019060200180831161039457829003601f168201915b505050505081525050815260200190600101906102be565b505050509050919050565b60008381526002602090815260408083206003909252822080549192918590811061040157610401611ebb565b60009182526020909120600684015460039092020191506001600160a01b0316331461048c5760405162461bcd60e51b815260206004820152602f60248201527f4f6e6c792074686520626f756e74792063726561746f722063616e206170707260448201526e6f7665207375626d697373696f6e7360881b60648201526084015b60405180910390fd5b6006820154600160a01b900460ff166104b75760405162461bcd60e51b815260040161048390611ed1565b6001810154600160a01b900460ff16156105135760405162461bcd60e51b815260206004820152601e60248201527f5375626d697373696f6e20697320616c726561647920617070726f76656400006044820152606401610483565b6001818101805460ff60a01b1916600160a01b17905560088301805460009061053d908490611f15565b909155505060018101546040516001600160a01b039091169086907fa84e21ff41d36b89f6f7712fb5649650174325ed9bfc98eafe02e4f1fdd3f3ae9061058a9060028601908890611f2e565b60405180910390a3821561063757600181015460028301546040516001600160a01b039092169181156108fc0291906000818181858888f193505050501580156105d8573d6000803e3d6000fd5b5060068201805460006002850181905562ff00ff60a01b19909116600160b01b1790915560018201546040516001600160a01b039091169187917fb36d901fccb6f536689eeb11a0ae1432218e5e52acaf7a8e7eb7693197fb3fae9190a35b5050505050565b6003602052816000526040600020818154811061065a57600080fd5b60009182526020909120600390910201805460018201546002830180549295506001600160a01b038216945060ff600160a01b8304811694600160a81b90930416926106a590611e81565b80601f01602080910402602001604051908101604052809291908181526020018280546106d190611e81565b801561071e5780601f106106f35761010080835404028352916020019161071e565b820191906000526020600020905b81548152906001019060200180831161070157829003601f168201915b5050505050905085565b6005546001600160a01b0316331461078e5760405162461bcd60e51b8152602060048201526024808201527f4f6e6c7920746865206f776e65722063616e206d616b652074686973207061796044820152631b595b9d60e21b6064820152608401610483565b60008281526002602052604090206006810154600160a01b900460ff166107c75760405162461bcd60e51b815260040161048390611ed1565b6006810154600160b01b900460ff16156108235760405162461bcd60e51b815260206004820152601c60248201527f426f756e74792068617320616c7265616479206265656e2070616964000000006044820152606401610483565b60028101546040516001600160a01b0384169180156108fc02916000818181858888f1935050505015801561085c573d6000803e3d6000fd5b5060068101805460006002840181905562ff00ff60a01b19909116600160b01b179091556040516001600160a01b0384169185917fb36d901fccb6f536689eeb11a0ae1432218e5e52acaf7a8e7eb7693197fb3fae9190a3505050565b6005546001600160a01b0316331461091e5760405162461bcd60e51b815260206004820152602260248201527f4f6e6c7920746865206f776e65722063616e2073746f726520736f6c7574696f6044820152616e7360f01b6064820152608401610483565b60008281526002602052604090206006810154600160a01b900460ff161561099e5760405162461bcd60e51b815260206004820152602d60248201527f426f756e7479206d75737420626520696e61637469766520746f2073746f726560448201526c103a34329039b7b63aba34b7b760991b6064820152608401610483565b6006810154600160b01b900460ff16156109fa5760405162461bcd60e51b815260206004820152601c60248201527f426f756e74792068617320616c7265616479206265656e2070616964000000006044820152606401610483565b60078101610a088382612018565b50827f6d28b140fc24be7e231b987cd35517b792c8ed41e1f28bf34ce7bd7d97bd8b8683604051610a3991906120d8565b60405180910390a2505050565b6000875111610a8f5760405162461bcd60e51b81526020600482015260156024820152745469746c652063616e6e6f7420626520656d70747960581b6044820152606401610483565b6000865111610ae05760405162461bcd60e51b815260206004820152601b60248201527f4465736372697074696f6e2063616e6e6f7420626520656d70747900000000006044820152606401610483565b60003411610b305760405162461bcd60e51b815260206004820181905260248201527f416d6f756e74206d7573742062652067726561746572207468616e207a65726f6044820152606401610483565b60048054906000610b40836120eb565b90915550506000805460405163d47eed4560e01b81526001600160a01b039091169063d47eed4590610b78908690869060040161212d565b602060405180830381865afa158015610b95573d6000803e3d6000fd5b505050506040513d601f19601f82011682018060405250810190610bb991906121c9565b600054604051631df3cbc560e31b81529192506001600160a01b03169063ef9e5e28908390610bee908790879060040161212d565b6000604051808303818588803b158015610c0757600080fd5b505af1158015610c1b573d6000803e3d6000fd5b50506000805460015460405163052571af60e51b81526004810191909152603c60248201529194506001600160a01b0316925063a4ae35e09150604401608060405180830381865afa158015610c75573d6000803e3d6000fd5b505050506040513d601f19601f82011682018060405250810190610c9991906121e2565b9050600080826000015160070b1215610cf45760405162461bcd60e51b815260206004820152601860248201527f50726963652073686f756c6420626520706f73697469766500000000000000006044820152606401610483565b600060128360400151610d079190612279565b60030b12610d51576040820151610d1f906012612279565b610d2a90600a612384565b8251610d409067ffffffffffffffff1689612396565b610d4a9190612396565b9050610d98565b6040820151610d61906012612279565b610d6a906123ad565b610d7590600a612384565b8251610d8b9067ffffffffffffffff1689612396565b610d9591906123d0565b90505b80610da384346123f2565b1015610de45760405162461bcd60e51b815260206004820152601060248201526f496e73756666696369656e742066656560801b6044820152606401610483565b60405180610180016040528060045481526020018881526020018281526020018b81526020018a8152602001898152602001336001600160a01b03168152602001600115158152602001871515815260200160001515815260200160405180602001604052806000815250815260200160008152506002600060045481526020019081526020016000206000820151816000015560208201518160010155604082015181600201556060820151816003019081610ea19190612018565b5060808201516004820190610eb69082612018565b5060a08201516005820190610ecb9082612018565b5060c082015160068201805460e08501516101008601516101208701511515600160b01b0260ff60b01b19911515600160a81b029190911661ffff60a81b19921515600160a01b026001600160a81b03199094166001600160a01b03909616959095179290921716929092179190911790556101408201516007820190610f529082612018565b506101608201518160080155905050336001600160a01b03166004547f7632d0f1c9149d7c7695d1f563f7154b106985f8d2d0b430dbd465ae3ab25b548c604051610f9d91906120d8565b60405180910390a350505050505050505050565b600082815260026020526040902060060154600160a01b900460ff16610fe95760405162461bcd60e51b815260040161048390611ed1565b6000828152600360208181526040808420815160a081018352878152338185019081529281018681526060820187815260808301898152845460018181018755958a529690982083519690970290960194855592519184018054935195511515600160a81b0260ff60a81b19961515600160a01b026001600160a81b03199095166001600160a01b0394909416939093179390931794909416179055915190919060028201906110999082612018565b505050336001600160a01b0316827f72075524713934864c8a8ff2740c94cd50c441bf186d8ffd9b908ca8dbb4776d836040516110d691906120d8565b60405180910390a35050565b60026020819052600091825260409091208054600182015492820154600383018054929493919261111290611e81565b80601f016020809104026020016040519081016040528092919081815260200182805461113e90611e81565b801561118b5780601f106111605761010080835404028352916020019161118b565b820191906000526020600020905b81548152906001019060200180831161116e57829003601f168201915b5050505050908060040180546111a090611e81565b80601f01602080910402602001604051908101604052809291908181526020018280546111cc90611e81565b80156112195780601f106111ee57610100808354040283529160200191611219565b820191906000526020600020905b8154815290600101906020018083116111fc57829003601f168201915b50505050509080600501805461122e90611e81565b80601f016020809104026020016040519081016040528092919081815260200182805461125a90611e81565b80156112a75780601f1061127c576101008083540402835291602001916112a7565b820191906000526020600020905b81548152906001019060200180831161128a57829003601f168201915b50505050600683015460078401805493946001600160a01b0383169460ff600160a01b850481169550600160a81b8504811694600160b01b90041692906112ed90611e81565b80601f016020809104026020016040519081016040528092919081815260200182805461131990611e81565b80156113665780601f1061133b57610100808354040283529160200191611366565b820191906000526020600020905b81548152906001019060200180831161134957829003601f168201915b505050505090806008015490508c565b600081815260026020526040902060068101546001600160a01b031633146113ee5760405162461bcd60e51b815260206004820152602560248201527f4f6e6c792074686520626f756e74792063726561746f722063616e2063616e63604482015264195b081a5d60da1b6064820152608401610483565b6006810154600160a01b900460ff166114495760405162461bcd60e51b815260206004820152601a60248201527f426f756e747920697320616c726561647920696e6163746976650000000000006044820152606401610483565b6008810154156114b15760405162461bcd60e51b815260206004820152602d60248201527f43616e6e6f742063616e63656c2c207375626d697373696f6e7320686176652060448201526c1899595b88185c1c1c9bdd9959609a1b6064820152608401610483565b60068101805460ff60a01b191690556002810154478111156115155760405162461bcd60e51b815260206004820181905260248201527f436f6e74726163742062616c616e636520697320696e73756666696369656e746044820152606401610483565b60006002830181905560068301546040516001600160a01b039091169183156108fc02918491818181858888f19350505050158015611558573d6000803e3d6000fd5b50604051339084907fbe34663bc2803ca9be398afdbd7e0bd537378360b743b76b170e3421fbe3845090600090a3505050565b6115fe60405180610180016040528060008152602001600081526020016000815260200160608152602001606081526020016060815260200160006001600160a01b0316815260200160001515815260200160001515815260200160001515815260200160608152602001600081525090565b600260008381526020019081526020016000206040518061018001604052908160008201548152602001600182015481526020016002820154815260200160038201805461164b90611e81565b80601f016020809104026020016040519081016040528092919081815260200182805461167790611e81565b80156116c45780601f10611699576101008083540402835291602001916116c4565b820191906000526020600020905b8154815290600101906020018083116116a757829003601f168201915b505050505081526020016004820180546116dd90611e81565b80601f016020809104026020016040519081016040528092919081815260200182805461170990611e81565b80156117565780601f1061172b57610100808354040283529160200191611756565b820191906000526020600020905b81548152906001019060200180831161173957829003601f168201915b5050505050815260200160058201805461176f90611e81565b80601f016020809104026020016040519081016040528092919081815260200182805461179b90611e81565b80156117e85780601f106117bd576101008083540402835291602001916117e8565b820191906000526020600020905b8154815290600101906020018083116117cb57829003601f168201915b505050918352505060068201546001600160a01b038116602083015260ff600160a01b8204811615156040840152600160a81b8204811615156060840152600160b01b909104161515608082015260078201805460a09092019161184b90611e81565b80601f016020809104026020016040519081016040528092919081815260200182805461187790611e81565b80156118c45780601f10611899576101008083540402835291602001916118c4565b820191906000526020600020905b8154815290600101906020018083116118a757829003601f168201915b505050505081526020016008820154815250509050919050565b6000602082840312156118f057600080fd5b5035919050565b6000815180845260005b8181101561191d57602081850181015186830182015201611901565b506000602082860101526020601f19601f83011685010191505092915050565b600060208083018184528085518083526040925060408601915060408160051b87010184880160005b838110156119d357888303603f19018552815180518452878101516001600160a01b0316888501528681015115158785015260608082015115159085015260809081015160a0918501829052906119bf818601836118f7565b968901969450505090860190600101611966565b509098975050505050505050565b803580151581146119f157600080fd5b919050565b600080600060608486031215611a0b57600080fd5b8335925060208401359150611a22604085016119e1565b90509250925092565b60008060408385031215611a3e57600080fd5b50508035926020909101359150565b8581526001600160a01b03851660208201528315156040820152821515606082015260a060808201819052600090611a87908301846118f7565b979650505050505050565b60008060408385031215611aa557600080fd5b8235915060208301356001600160a01b0381168114611ac357600080fd5b809150509250929050565b634e487b7160e01b600052604160045260246000fd5b600082601f830112611af557600080fd5b813567ffffffffffffffff80821115611b1057611b10611ace565b604051601f8301601f19908116603f01168101908282118183101715611b3857611b38611ace565b81604052838152866020858801011115611b5157600080fd5b836020870160208301376000602085830101528094505050505092915050565b60008060408385031215611b8457600080fd5b82359150602083013567ffffffffffffffff811115611ba257600080fd5b611bae85828601611ae4565b9150509250929050565b60008083601f840112611bca57600080fd5b50813567ffffffffffffffff811115611be257600080fd5b6020830191508360208260051b8501011115611bfd57600080fd5b9250929050565b600080600080600080600060c0888a031215611c1f57600080fd5b873567ffffffffffffffff80821115611c3757600080fd5b611c438b838c01611ae4565b985060208a0135915080821115611c5957600080fd5b611c658b838c01611ae4565b975060408a0135915080821115611c7b57600080fd5b611c878b838c01611ae4565b965060608a01359550611c9c60808b016119e1565b945060a08a0135915080821115611cb257600080fd5b50611cbf8a828b01611bb8565b989b979a50959850939692959293505050565b60006101808e83528d60208401528c6040840152806060840152611cf88184018d6118f7565b90508281036080840152611d0c818c6118f7565b905082810360a0840152611d20818b6118f7565b6001600160a01b038a1660c085015288151560e08501528715156101008501529050851515610120840152828103610140840152611d5e81866118f7565b915050826101608301529d9c50505050505050505050505050565b6020815281516020820152602082015160408201526040820151606082015260006060830151610180806080850152611db66101a08501836118f7565b91506080850151601f19808685030160a0870152611dd484836118f7565b935060a08701519150808685030160c0870152611df184836118f7565b935060c08701519150611e0f60e08701836001600160a01b03169052565b60e08701519150610100611e268188018415159052565b8701519150610120611e3b8782018415159052565b8701519150610140611e508782018415159052565b80880151925050610160818786030181880152611e6d85846118f7565b970151959092019490945250929392505050565b600181811c90821680611e9557607f821691505b602082108103611eb557634e487b7160e01b600052602260045260246000fd5b50919050565b634e487b7160e01b600052603260045260246000fd5b602080825260149082015273426f756e7479206973206e6f742061637469766560601b604082015260600190565b634e487b7160e01b600052601160045260246000fd5b80820180821115611f2857611f28611eff565b92915050565b604081526000808454611f4081611e81565b8060408601526060600180841660008114611f625760018114611f7e57611fb0565b60ff1985166060890152606084151560051b8901019550611fb0565b8960005260208060002060005b86811015611fa65781548b8201870152908401908201611f8b565b8a01606001975050505b5050505084151560208501525090505b9392505050565b601f821115612013576000816000526020600020601f850160051c81016020861015611ff05750805b601f850160051c820191505b8181101561200f57828155600101611ffc565b5050505b505050565b815167ffffffffffffffff81111561203257612032611ace565b612046816120408454611e81565b84611fc7565b602080601f83116001811461207b57600084156120635750858301515b600019600386901b1c1916600185901b17855561200f565b600085815260208120601f198616915b828110156120aa5788860151825594840194600190910190840161208b565b50858210156120c85787850151600019600388901b60f8161c191681555b5050505050600190811b01905550565b602081526000611fc060208301846118f7565b6000600182016120fd576120fd611eff565b5060010190565b81835281816020850137506000828201602090810191909152601f909101601f19169091010190565b60208082528181018390526000906040600585901b8401810190840186845b878110156121bc57868403603f190183528135368a9003601e1901811261217257600080fd5b8901858101903567ffffffffffffffff81111561218e57600080fd5b80360382131561219d57600080fd5b6121a8868284612104565b95505050918401919084019060010161214c565b5091979650505050505050565b6000602082840312156121db57600080fd5b5051919050565b6000608082840312156121f457600080fd5b6040516080810167ffffffffffffffff828210818311171561221857612218611ace565b81604052845191508160070b821461222f57600080fd5b908252602084015190808216821461224657600080fd5b5060208201526040830151600381900b811461226157600080fd5b60408201526060928301519281019290925250919050565b600381810b9083900b01637fffffff8113637fffffff1982121715611f2857611f28611eff565b600181815b808511156122db5781600019048211156122c1576122c1611eff565b808516156122ce57918102915b93841c93908002906122a5565b509250929050565b6000826122f257506001611f28565b816122ff57506000611f28565b8160018114612315576002811461231f5761233b565b6001915050611f28565b60ff84111561233057612330611eff565b50506001821b611f28565b5060208310610133831016604e8410600b841016171561235e575081810a611f28565b61236883836122a0565b806000190482111561237c5761237c611eff565b029392505050565b6000611fc063ffffffff8416836122e3565b8082028115828204841417611f2857611f28611eff565b60008160030b637fffffff1981036123c7576123c7611eff565b60000392915050565b6000826123ed57634e487b7160e01b600052601260045260246000fd5b500490565b81810381811115611f2857611f28611eff56fea2646970667358221220a18cc4b95467232d165b0a72b04cb89ef55f2ced87e360aac56cae35fa8add2864736f6c63430008180033",
  "linkReferences": {},
  "deployedLinkReferences": {}
}