{
  "contracts/ID.sol": {
    "ID": {
      "abi": [
        {
          "inputs": [
            {
              "internalType": "string",
              "name": "_appId",
              "type": "string"
            },
            {
              "internalType": "string",
              "name": "_actionId",
              "type": "string"
            }
          ],
          "stateMutability": "nonpayable",
          "type": "constructor"
        },
        {
          "inputs": [
            {
              "internalType": "uint256",
              "name": "nullifierHash",
              "type": "uint256"
            }
          ],
          "name": "DuplicateNullifier",
          "type": "error"
        },
        {
          "anonymous": false,
          "inputs": [
            {
              "indexed": false,
              "internalType": "uint256",
              "name": "nullifierHash",
              "type": "uint256"
            }
          ],
          "name": "Verified",
          "type": "event"
        },
        {
          "inputs": [
            {
              "internalType": "address",
              "name": "_currentUser",
              "type": "address"
            }
          ],
          "name": "manualVerify",
          "outputs": [],
          "stateMutability": "nonpayable",
          "type": "function"
        },
        {
          "inputs": [],
          "name": "owner",
          "outputs": [
            {
              "internalType": "address",
              "name": "",
              "type": "address"
            }
          ],
          "stateMutability": "view",
          "type": "function"
        },
        {
          "inputs": [
            {
              "internalType": "address",
              "name": "signal",
              "type": "address"
            },
            {
              "internalType": "uint256",
              "name": "root",
              "type": "uint256"
            },
            {
              "internalType": "uint256",
              "name": "nullifierHash",
              "type": "uint256"
            },
            {
              "internalType": "uint256[8]",
              "name": "proof",
              "type": "uint256[8]"
            }
          ],
          "name": "verifyAndExecute",
          "outputs": [],
          "stateMutability": "nonpayable",
          "type": "function"
        }
      ],
      "evm": {
        "bytecode": {
          "linkReferences": {},
          "object": "60e06040527311ca3127182f7583efc416a8771bd4d11fae4334608052600160c05234801561002d57600080fd5b506040516106a03803806106a083398101604081905261004c9161019c565b61008a6100788360405160200161006391906101ff565b60408051601f198184030181529190526100a6565b8260405160200161006392919061021b565b60a0525050600080546001600160a01b03191633179055610241565b60006008826040516020016100bb91906101ff565b60408051601f198184030181529190528051602090910120901c92915050565b634e487b7160e01b600052604160045260246000fd5b60005b8381101561010c5781810151838201526020016100f4565b50506000910152565b600082601f83011261012657600080fd5b81516001600160401b0380821115610140576101406100db565b604051601f8301601f19908116603f01168101908282118183101715610168576101686100db565b8160405283815286602085880101111561018157600080fd5b6101928460208301602089016100f1565b9695505050505050565b600080604083850312156101af57600080fd5b82516001600160401b03808211156101c657600080fd5b6101d286838701610115565b935060208501519150808211156101e857600080fd5b506101f585828601610115565b9150509250929050565b600082516102118184602087016100f1565b9190910192915050565b828152600082516102338160208501602087016100f1565b919091016020019392505050565b60805160a05160c0516104306102706000396000610196015260006101f80152600061016601526104306000f3fe608060405234801561001057600080fd5b50600436106100415760003560e01c80637c98ce86146100465780638da5cb5b1461005b578063e9b705531461008a575b600080fd5b610059610054366004610323565b61009d565b005b60005461006e906001600160a01b031681565b6040516001600160a01b03909116815260200160405180910390f35b610059610098366004610345565b610131565b6000546001600160a01b0316331461010d5760405162461bcd60e51b815260206004820152602860248201527f4f6e6c7920746865206f776e65722063616e206d616e75616c6c792076657269604482015267667920757365727360c01b60648201526084015b60405180910390fd5b6001600160a01b03166000908152600260205260409020805460ff19166001179055565b60008281526001602052604090205460ff161561016457604051633c7fd51360e11b815260048101839052602401610104565b7f00000000000000000000000000000000000000000000000000000000000000006001600160a01b0316633bc778e3847f00000000000000000000000000000000000000000000000000000000000000006101f5886040516020016101e1919060609190911b6bffffffffffffffffffffffff1916815260140190565b6040516020818303038152906040526102d2565b867f0000000000000000000000000000000000000000000000000000000000000000876040518763ffffffff1660e01b815260040161023996959493929190610393565b60006040518083038186803b15801561025157600080fd5b505afa158015610265573d6000803e3d6000fd5b5050506000838152600160208181526040808420805460ff19908116851790915533855260028352938190208054909416909217909255518481527ff786e7f77ede00a02a5464f8f0555798f42ba99a4a920ef2778db8d75e4656f792500160405180910390a150505050565b60006008826040516020016102e791906103cb565b60408051601f198184030181529190528051602090910120901c92915050565b80356001600160a01b038116811461031e57600080fd5b919050565b60006020828403121561033557600080fd5b61033e82610307565b9392505050565b60008060008061016080868803121561035d57600080fd5b61036686610307565b9450602086013593506040860135925086818701111561038557600080fd5b509295919450926060019150565b60006101a0820190508782528660208301528560408301528460608301528360808301526101008360a0840137979650505050505050565b6000825160005b818110156103ec57602081860181015185830152016103d2565b50600092019182525091905056fea26469706673582212205947d5a2bd73d651664559d414d1e68a799643a8e7dda669bda22b07b671ff2f64736f6c63430008180033",
          "opcodes": "PUSH1 0xE0 PUSH1 0x40 MSTORE PUSH20 0x11CA3127182F7583EFC416A8771BD4D11FAE4334 PUSH1 0x80 MSTORE PUSH1 0x1 PUSH1 0xC0 MSTORE CALLVALUE DUP1 ISZERO PUSH2 0x2D JUMPI PUSH1 0x0 DUP1 REVERT JUMPDEST POP PUSH1 0x40 MLOAD PUSH2 0x6A0 CODESIZE SUB DUP1 PUSH2 0x6A0 DUP4 CODECOPY DUP2 ADD PUSH1 0x40 DUP2 SWAP1 MSTORE PUSH2 0x4C SWAP2 PUSH2 0x19C JUMP JUMPDEST PUSH2 0x8A PUSH2 0x78 DUP4 PUSH1 0x40 MLOAD PUSH1 0x20 ADD PUSH2 0x63 SWAP2 SWAP1 PUSH2 0x1FF JUMP JUMPDEST PUSH1 0x40 DUP1 MLOAD PUSH1 0x1F NOT DUP2 DUP5 SUB ADD DUP2 MSTORE SWAP2 SWAP1 MSTORE PUSH2 0xA6 JUMP JUMPDEST DUP3 PUSH1 0x40 MLOAD PUSH1 0x20 ADD PUSH2 0x63 SWAP3 SWAP2 SWAP1 PUSH2 0x21B JUMP JUMPDEST PUSH1 0xA0 MSTORE POP POP PUSH1 0x0 DUP1 SLOAD PUSH1 0x1 PUSH1 0x1 PUSH1 0xA0 SHL SUB NOT AND CALLER OR SWAP1 SSTORE PUSH2 0x241 JUMP JUMPDEST PUSH1 0x0 PUSH1 0x8 DUP3 PUSH1 0x40 MLOAD PUSH1 0x20 ADD PUSH2 0xBB SWAP2 SWAP1 PUSH2 0x1FF JUMP JUMPDEST PUSH1 0x40 DUP1 MLOAD PUSH1 0x1F NOT DUP2 DUP5 SUB ADD DUP2 MSTORE SWAP2 SWAP1 MSTORE DUP1 MLOAD PUSH1 0x20 SWAP1 SWAP2 ADD KECCAK256 SWAP1 SHR SWAP3 SWAP2 POP POP JUMP JUMPDEST PUSH4 0x4E487B71 PUSH1 0xE0 SHL PUSH1 0x0 MSTORE PUSH1 0x41 PUSH1 0x4 MSTORE PUSH1 0x24 PUSH1 0x0 REVERT JUMPDEST PUSH1 0x0 JUMPDEST DUP4 DUP2 LT ISZERO PUSH2 0x10C JUMPI DUP2 DUP2 ADD MLOAD DUP4 DUP3 ADD MSTORE PUSH1 0x20 ADD PUSH2 0xF4 JUMP JUMPDEST POP POP PUSH1 0x0 SWAP2 ADD MSTORE JUMP JUMPDEST PUSH1 0x0 DUP3 PUSH1 0x1F DUP4 ADD SLT PUSH2 0x126 JUMPI PUSH1 0x0 DUP1 REVERT JUMPDEST DUP2 MLOAD PUSH1 0x1 PUSH1 0x1 PUSH1 0x40 SHL SUB DUP1 DUP3 GT ISZERO PUSH2 0x140 JUMPI PUSH2 0x140 PUSH2 0xDB JUMP JUMPDEST PUSH1 0x40 MLOAD PUSH1 0x1F DUP4 ADD PUSH1 0x1F NOT SWAP1 DUP2 AND PUSH1 0x3F ADD AND DUP2 ADD SWAP1 DUP3 DUP3 GT DUP2 DUP4 LT OR ISZERO PUSH2 0x168 JUMPI PUSH2 0x168 PUSH2 0xDB JUMP JUMPDEST DUP2 PUSH1 0x40 MSTORE DUP4 DUP2 MSTORE DUP7 PUSH1 0x20 DUP6 DUP9 ADD ADD GT ISZERO PUSH2 0x181 JUMPI PUSH1 0x0 DUP1 REVERT JUMPDEST PUSH2 0x192 DUP5 PUSH1 0x20 DUP4 ADD PUSH1 0x20 DUP10 ADD PUSH2 0xF1 JUMP JUMPDEST SWAP7 SWAP6 POP POP POP POP POP POP JUMP JUMPDEST PUSH1 0x0 DUP1 PUSH1 0x40 DUP4 DUP6 SUB SLT ISZERO PUSH2 0x1AF JUMPI PUSH1 0x0 DUP1 REVERT JUMPDEST DUP3 MLOAD PUSH1 0x1 PUSH1 0x1 PUSH1 0x40 SHL SUB DUP1 DUP3 GT ISZERO PUSH2 0x1C6 JUMPI PUSH1 0x0 DUP1 REVERT JUMPDEST PUSH2 0x1D2 DUP7 DUP4 DUP8 ADD PUSH2 0x115 JUMP JUMPDEST SWAP4 POP PUSH1 0x20 DUP6 ADD MLOAD SWAP2 POP DUP1 DUP3 GT ISZERO PUSH2 0x1E8 JUMPI PUSH1 0x0 DUP1 REVERT JUMPDEST POP PUSH2 0x1F5 DUP6 DUP3 DUP7 ADD PUSH2 0x115 JUMP JUMPDEST SWAP2 POP POP SWAP3 POP SWAP3 SWAP1 POP JUMP JUMPDEST PUSH1 0x0 DUP3 MLOAD PUSH2 0x211 DUP2 DUP5 PUSH1 0x20 DUP8 ADD PUSH2 0xF1 JUMP JUMPDEST SWAP2 SWAP1 SWAP2 ADD SWAP3 SWAP2 POP POP JUMP JUMPDEST DUP3 DUP2 MSTORE PUSH1 0x0 DUP3 MLOAD PUSH2 0x233 DUP2 PUSH1 0x20 DUP6 ADD PUSH1 0x20 DUP8 ADD PUSH2 0xF1 JUMP JUMPDEST SWAP2 SWAP1 SWAP2 ADD PUSH1 0x20 ADD SWAP4 SWAP3 POP POP POP JUMP JUMPDEST PUSH1 0x80 MLOAD PUSH1 0xA0 MLOAD PUSH1 0xC0 MLOAD PUSH2 0x430 PUSH2 0x270 PUSH1 0x0 CODECOPY PUSH1 0x0 PUSH2 0x196 ADD MSTORE PUSH1 0x0 PUSH2 0x1F8 ADD MSTORE PUSH1 0x0 PUSH2 0x166 ADD MSTORE PUSH2 0x430 PUSH1 0x0 RETURN INVALID PUSH1 0x80 PUSH1 0x40 MSTORE CALLVALUE DUP1 ISZERO PUSH2 0x10 JUMPI PUSH1 0x0 DUP1 REVERT JUMPDEST POP PUSH1 0x4 CALLDATASIZE LT PUSH2 0x41 JUMPI PUSH1 0x0 CALLDATALOAD PUSH1 0xE0 SHR DUP1 PUSH4 0x7C98CE86 EQ PUSH2 0x46 JUMPI DUP1 PUSH4 0x8DA5CB5B EQ PUSH2 0x5B JUMPI DUP1 PUSH4 0xE9B70553 EQ PUSH2 0x8A JUMPI JUMPDEST PUSH1 0x0 DUP1 REVERT JUMPDEST PUSH2 0x59 PUSH2 0x54 CALLDATASIZE PUSH1 0x4 PUSH2 0x323 JUMP JUMPDEST PUSH2 0x9D JUMP JUMPDEST STOP JUMPDEST PUSH1 0x0 SLOAD PUSH2 0x6E SWAP1 PUSH1 0x1 PUSH1 0x1 PUSH1 0xA0 SHL SUB AND DUP2 JUMP JUMPDEST PUSH1 0x40 MLOAD PUSH1 0x1 PUSH1 0x1 PUSH1 0xA0 SHL SUB SWAP1 SWAP2 AND DUP2 MSTORE PUSH1 0x20 ADD PUSH1 0x40 MLOAD DUP1 SWAP2 SUB SWAP1 RETURN JUMPDEST PUSH2 0x59 PUSH2 0x98 CALLDATASIZE PUSH1 0x4 PUSH2 0x345 JUMP JUMPDEST PUSH2 0x131 JUMP JUMPDEST PUSH1 0x0 SLOAD PUSH1 0x1 PUSH1 0x1 PUSH1 0xA0 SHL SUB AND CALLER EQ PUSH2 0x10D JUMPI PUSH1 0x40 MLOAD PUSH3 0x461BCD PUSH1 0xE5 SHL DUP2 MSTORE PUSH1 0x20 PUSH1 0x4 DUP3 ADD MSTORE PUSH1 0x28 PUSH1 0x24 DUP3 ADD MSTORE PUSH32 0x4F6E6C7920746865206F776E65722063616E206D616E75616C6C792076657269 PUSH1 0x44 DUP3 ADD MSTORE PUSH8 0x6679207573657273 PUSH1 0xC0 SHL PUSH1 0x64 DUP3 ADD MSTORE PUSH1 0x84 ADD JUMPDEST PUSH1 0x40 MLOAD DUP1 SWAP2 SUB SWAP1 REVERT JUMPDEST PUSH1 0x1 PUSH1 0x1 PUSH1 0xA0 SHL SUB AND PUSH1 0x0 SWAP1 DUP2 MSTORE PUSH1 0x2 PUSH1 0x20 MSTORE PUSH1 0x40 SWAP1 KECCAK256 DUP1 SLOAD PUSH1 0xFF NOT AND PUSH1 0x1 OR SWAP1 SSTORE JUMP JUMPDEST PUSH1 0x0 DUP3 DUP2 MSTORE PUSH1 0x1 PUSH1 0x20 MSTORE PUSH1 0x40 SWAP1 KECCAK256 SLOAD PUSH1 0xFF AND ISZERO PUSH2 0x164 JUMPI PUSH1 0x40 MLOAD PUSH4 0x3C7FD513 PUSH1 0xE1 SHL DUP2 MSTORE PUSH1 0x4 DUP2 ADD DUP4 SWAP1 MSTORE PUSH1 0x24 ADD PUSH2 0x104 JUMP JUMPDEST PUSH32 0x0 PUSH1 0x1 PUSH1 0x1 PUSH1 0xA0 SHL SUB AND PUSH4 0x3BC778E3 DUP5 PUSH32 0x0 PUSH2 0x1F5 DUP9 PUSH1 0x40 MLOAD PUSH1 0x20 ADD PUSH2 0x1E1 SWAP2 SWAP1 PUSH1 0x60 SWAP2 SWAP1 SWAP2 SHL PUSH12 0xFFFFFFFFFFFFFFFFFFFFFFFF NOT AND DUP2 MSTORE PUSH1 0x14 ADD SWAP1 JUMP JUMPDEST PUSH1 0x40 MLOAD PUSH1 0x20 DUP2 DUP4 SUB SUB DUP2 MSTORE SWAP1 PUSH1 0x40 MSTORE PUSH2 0x2D2 JUMP JUMPDEST DUP7 PUSH32 0x0 DUP8 PUSH1 0x40 MLOAD DUP8 PUSH4 0xFFFFFFFF AND PUSH1 0xE0 SHL DUP2 MSTORE PUSH1 0x4 ADD PUSH2 0x239 SWAP7 SWAP6 SWAP5 SWAP4 SWAP3 SWAP2 SWAP1 PUSH2 0x393 JUMP JUMPDEST PUSH1 0x0 PUSH1 0x40 MLOAD DUP1 DUP4 SUB DUP2 DUP7 DUP1 EXTCODESIZE ISZERO DUP1 ISZERO PUSH2 0x251 JUMPI PUSH1 0x0 DUP1 REVERT JUMPDEST POP GAS STATICCALL ISZERO DUP1 ISZERO PUSH2 0x265 JUMPI RETURNDATASIZE PUSH1 0x0 DUP1 RETURNDATACOPY RETURNDATASIZE PUSH1 0x0 REVERT JUMPDEST POP POP POP PUSH1 0x0 DUP4 DUP2 MSTORE PUSH1 0x1 PUSH1 0x20 DUP2 DUP2 MSTORE PUSH1 0x40 DUP1 DUP5 KECCAK256 DUP1 SLOAD PUSH1 0xFF NOT SWAP1 DUP2 AND DUP6 OR SWAP1 SWAP2 SSTORE CALLER DUP6 MSTORE PUSH1 0x2 DUP4 MSTORE SWAP4 DUP2 SWAP1 KECCAK256 DUP1 SLOAD SWAP1 SWAP5 AND SWAP1 SWAP3 OR SWAP1 SWAP3 SSTORE MLOAD DUP5 DUP2 MSTORE PUSH32 0xF786E7F77EDE00A02A5464F8F0555798F42BA99A4A920EF2778DB8D75E4656F7 SWAP3 POP ADD PUSH1 0x40 MLOAD DUP1 SWAP2 SUB SWAP1 LOG1 POP POP POP POP JUMP JUMPDEST PUSH1 0x0 PUSH1 0x8 DUP3 PUSH1 0x40 MLOAD PUSH1 0x20 ADD PUSH2 0x2E7 SWAP2 SWAP1 PUSH2 0x3CB JUMP JUMPDEST PUSH1 0x40 DUP1 MLOAD PUSH1 0x1F NOT DUP2 DUP5 SUB ADD DUP2 MSTORE SWAP2 SWAP1 MSTORE DUP1 MLOAD PUSH1 0x20 SWAP1 SWAP2 ADD KECCAK256 SWAP1 SHR SWAP3 SWAP2 POP POP JUMP JUMPDEST DUP1 CALLDATALOAD PUSH1 0x1 PUSH1 0x1 PUSH1 0xA0 SHL SUB DUP2 AND DUP2 EQ PUSH2 0x31E JUMPI PUSH1 0x0 DUP1 REVERT JUMPDEST SWAP2 SWAP1 POP JUMP JUMPDEST PUSH1 0x0 PUSH1 0x20 DUP3 DUP5 SUB SLT ISZERO PUSH2 0x335 JUMPI PUSH1 0x0 DUP1 REVERT JUMPDEST PUSH2 0x33E DUP3 PUSH2 0x307 JUMP JUMPDEST SWAP4 SWAP3 POP POP POP JUMP JUMPDEST PUSH1 0x0 DUP1 PUSH1 0x0 DUP1 PUSH2 0x160 DUP1 DUP7 DUP9 SUB SLT ISZERO PUSH2 0x35D JUMPI PUSH1 0x0 DUP1 REVERT JUMPDEST PUSH2 0x366 DUP7 PUSH2 0x307 JUMP JUMPDEST SWAP5 POP PUSH1 0x20 DUP7 ADD CALLDATALOAD SWAP4 POP PUSH1 0x40 DUP7 ADD CALLDATALOAD SWAP3 POP DUP7 DUP2 DUP8 ADD GT ISZERO PUSH2 0x385 JUMPI PUSH1 0x0 DUP1 REVERT JUMPDEST POP SWAP3 SWAP6 SWAP2 SWAP5 POP SWAP3 PUSH1 0x60 ADD SWAP2 POP JUMP JUMPDEST PUSH1 0x0 PUSH2 0x1A0 DUP3 ADD SWAP1 POP DUP8 DUP3 MSTORE DUP7 PUSH1 0x20 DUP4 ADD MSTORE DUP6 PUSH1 0x40 DUP4 ADD MSTORE DUP5 PUSH1 0x60 DUP4 ADD MSTORE DUP4 PUSH1 0x80 DUP4 ADD MSTORE PUSH2 0x100 DUP4 PUSH1 0xA0 DUP5 ADD CALLDATACOPY SWAP8 SWAP7 POP POP POP POP POP POP POP JUMP JUMPDEST PUSH1 0x0 DUP3 MLOAD PUSH1 0x0 JUMPDEST DUP2 DUP2 LT ISZERO PUSH2 0x3EC JUMPI PUSH1 0x20 DUP2 DUP7 ADD DUP2 ADD MLOAD DUP6 DUP4 ADD MSTORE ADD PUSH2 0x3D2 JUMP JUMPDEST POP PUSH1 0x0 SWAP3 ADD SWAP2 DUP3 MSTORE POP SWAP2 SWAP1 POP JUMP INVALID LOG2 PUSH5 0x6970667358 0x22 SLT KECCAK256 MSIZE SELFBALANCE 0xD5 LOG2 0xBD PUSH20 0xD651664559D414D1E68A799643A8E7DDA669BDA2 0x2B SMOD 0xB6 PUSH18 0xFF2F64736F6C634300081800330000000000 "
        },
        "methodIdentifiers": {
          "manualVerify(address)": "7c98ce86",
          "owner()": "8da5cb5b",
          "verifyAndExecute(address,uint256,uint256,uint256[8])": "e9b70553"
        }
      }
    }
  }
}